:100000000C9463000C948B000C948B000C942E04C5
:100010000C942E040C942E040C948B000C948B00E6
:100020000C948B000C948B000C948B000C948B0024
:100030000C948B000C948B000C948B000C948B0014
:100040000C94E4030C948B000C94B2030C948C037A
:100050000C948B000C948B000C948B000C948B00F4
:100060000C948B000C948B000000000024002700EF
:100070002A0000000008000201000003040700003D
:1000800000000000000000000000230026002900FE
:1000900000000000250028002B00040404040404D0
:1000A0000404020202020202030303030303010227
:1000B00004081020408001020408102001020408F6
:1000C0001020A6048D0711241FBECFEFD8E0DEBF9D
:1000D000CDBF11E0A0E0B1E0E8E3F6E102C0059099
:1000E0000D92A23AB107D9F722E0A2EAB1E001C02D
:1000F0001D92A53BB207E1F710E0C2E6D0E004C0D4
:100100002197FE010E941709C136D107C9F70E9445
:1001100064050C940F0B0C940000AF92BF92CF9229
:10012000DF92EF92FF920F931F93CF93DF936C01B7
:100130007B018B01040F151FEB015E01AE18BF0898
:10014000C017D10759F06991D601ED91FC9101904A
:10015000F081E02DC6010995892B79F7C501DF9162
:10016000CF911F910F91FF90EF90DF90CF90BF90B4
:10017000AF900895FC01538D448D252F30E0842FDE
:1001800090E0821B930B541710F0CF9608950197BF
:100190000895FC01918D828D981761F0A28DAE0FAC
:1001A000BF2FB11D5D968C91928D9F5F9F73928F33
:1001B00090E008958FEF9FEF0895FC01918D828D5F
:1001C000981731F0828DE80FF11D858D90E008952C
:1001D0008FEF9FEF0895FC01918D228D892F90E084
:1001E000805C9F4F821B91098F73992708958FEE32
:1001F00091E00E94EB0021E0892B09F420E0822F9E
:10020000089580E090E0892B29F00E94F700811189
:100210000C9400000895FC01A48DA80FB92FB11D06
:10022000A35ABF4F2C91848D90E001968F7399272C
:10023000848FA689B7892C93A089B1898C9183700A
:1002400080648C93938D848D981306C00288F38903
:10025000E02D80818F7D80830895EF92FF920F9330
:100260001F93CF93DF93EC0181E0888F9B8D8C8D62
:1002700098131AC0E889F989808185FF15C09FB756
:10028000F894EE89FF896083E889F9898081837019
:10029000806480839FBF81E090E0DF91CF911F91C8
:1002A0000F91FF90EF900895F62E0B8D10E00F5FE9
:1002B0001F4F0F731127E02E8C8D8E110CC00FB6BF
:1002C00007FCFACFE889F989808185FFF5CFCE0157
:1002D0000E940B01F1CFEB8DEC0FFD2FF11DE35AC6
:1002E000FF4FF0829FB7F8940B8FEA89FB898081DA
:1002F0008062CFCFCF93DF93EC01888D8823B9F054
:10030000AA89BB89E889F9898C9185FD03C0808120
:1003100086FD0DC00FB607FCF7CF8C9185FFF2CF9D
:10032000808185FFEDCFCE010E940B01E9CFDF91E7
:10033000CF910895833081F028F4813099F0823094
:10034000A9F008958730A9F08830C9F08430B1F45D
:10035000809180008F7D03C0809180008F77809393
:100360008000089584B58F7784BD089584B58F7D0E
:10037000FBCF8091B0008F778093B000089580917B
:10038000B0008F7DF9CF1F93CF93DF93282F30E0FC
:10039000F901EE58FF4F8491F901E255FF4FD491D6
:1003A000F901E656FF4FC491CC23A9F0162F811115
:1003B0000E949A01EC2FF0E0EE0FFF1FE057FF4F75
:1003C000A591B4918FB7F894EC91111108C0D09514
:1003D000DE23DC938FBFDF91CF911F910895DE2B39
:1003E000F8CFCF93DF9390E0FC01E255FF4F2491CB
:1003F00086569F4FFC0184918823D1F090E0880FAE
:10040000991FFC01E859FF4FA591B491FC01E057F9
:10041000FF4FC591D49161110EC09FB7F8948C9194
:10042000E22FE0958E238C932881E223E8839FBFFF
:10043000DF91CF9108958FB7F894EC91E22BEC9374
:100440008FBFF6CF3FB7F8948091E7019091E80114
:10045000A091E901B091EA0126B5A89B05C02F3F04
:1004600019F00196A11DB11D3FBFBA2FA92F982FDA
:100470008827BC01CD01620F711D811D911D42E0D5
:10048000660F771F881F991F4A95D1F708958F929D
:100490009F92AF92BF92CF92DF92EF92FF924B0169
:1004A0005C010E9422026B017C010E9422026C19F5
:1004B0007D098E099F09683E734081059105A8F367
:1004C00021E0821A9108A108B10888EEC80E83E0E5
:1004D000D81EE11CF11C81149104A104B10429F778
:1004E000FF90EF90DF90CF90BF90AF909F908F9054
:1004F00008952091ED013091EE012817390771F42C
:100500009091EB018091EC01981741F0E091EB01A3
:10051000F0E0EE55FE4F808190E008958FEF9FEF61
:1005200008950895EF92FF920F931F93CF93DF9357
:10053000DC015C96ED90FC905D97E114F10479F498
:1005400081E090E013969C938E93129790E080E068
:10055000DF91CF911F910F91FF90EF9008955196E9
:10056000ED91FC91529750968C915097982F9095C1
:100570000FB75E962C915E97122F127021FD609539
:10058000F8942081112319F1282B2083E70121976A
:10059000F1F728E0462F50E0308160FF1AC0382B79
:1005A0003083E7012197F1F7BA01759567952150DE
:1005B00089F7112381F08081892380830FBF5C96A6
:1005C0008D919C910197F1F781E090E0C1CF2923B3
:1005D000DCCF3923E5CF9081892BEFCF2091ED013E
:1005E0003091EE012817390771F48091EC012091C8
:1005F000EB0190E0805C9F4F821B910960E470E00A
:100600000E94EF08089590E080E008952091ED01A8
:100610003091EE0128173907B9F49091EB018091E0
:10062000EC01981789F0E091EB01F0E0EE55FE4FF8
:1006300080812091EB0130E02F5F3F4F2F733327F4
:100640002093EB0190E008958FEF9FEF089590E0E5
:1006500080E00895FB0101900020E9F73197AF0198
:10066000461B570BDC01ED91FC910280F381E02DDC
:1006700009940F931F93CF93DF93EC010E942A03F9
:100680008C016EE271E0CE010E942A03800F911F5F
:10069000DF91CF911F910F910895EF92FF920F93E9
:1006A0001F93CF93DF93EC017B018A0188819981AD
:1006B000009729F02A813B812417350788F4B80177
:1006C0006F5F7F4F0E94420A009791F09983888361
:1006D0001B830A832C813D81232B11F4FC011082A2
:1006E0001D830C83B701888199810E94080B0CC07F
:1006F00088819981009711F00E94B90919821882A6
:100700001D821C821B821A82CE01DF91CF911F9124
:100710000F91FF90EF9008951F920F920FB60F92D6
:1007200011242F933F934F935F936F937F938F93F6
:100730009F93AF93BF93EF93FF938FEE91E00E944F
:100740000B01FF91EF91BF91AF919F918F917F919D
:100750006F915F914F913F912F910F900FBE0F902E
:100760001F9018951F920F920FB60F9211242F937E
:100770008F939F93EF93FF93E091FF01F09100021D
:100780008081E0910502F091060282FD1BC09081FC
:10079000809108028F5F8F7320910902821741F0C8
:1007A000E0910802F0E0E151FE4F958F809308023E
:1007B000FF91EF919F918F912F910F900FBE0F900E
:1007C0001F9018958081F4CF1F920F920FB60F9251
:1007D00011242F933F938F939F93AF93BF93809157
:1007E000E3019091E401A091E501B091E60130911F
:1007F000E20123E0230F2D3758F50196A11DB11D0D
:100800002093E2018093E3019093E401A093E5013A
:10081000B093E6018091E7019091E801A091E90190
:10082000B091EA010196A11DB11D8093E70190935B
:10083000E801A093E901B093EA01BF91AF919F91C4
:100840008F913F912F910F900FBE0F901F90189591
:1008500026E8230F0296A11DB11DD2CF1F920F9241
:100860000FB60F9211242F933F934F935F936F9383
:100870007F938F939F93AF93BF93EF93FF93E091F9
:10088000ED01F091EE01309749F0A685B785858599
:10089000968D91FF14C09C918923A1F4FF91EF9153
:1008A000BF91AF919F918F917F916F915F914F9188
:1008B0003F912F910F900FBE0F901F9018959C9114
:1008C000892361F7A389B4899C91858980958923BF
:1008D0008C93868997890197F1F7608D718DA68534
:1008E000B785558538E020E0CB010197F1F7822FDD
:1008F00090E095958795282F4C91452309F0206825
:10090000315091F7868D81FD20958091EC0190E02A
:1009100001968F7399273091EB01381799F0A091C8
:10092000EC01B0E0AE55BE4F2C938093EC01828D6C
:10093000938D0197F1F7A389B4898C919589892BBF
:100940008C93ACCF868D8160868FF1CF1092F201AF
:100950001092F10188EE93E0A0E0B0E08093F30103
:100960009093F401A093F501B093F6012EE031E0ED
:100970003093F0012093EF0125EC30E03093FC013F
:100980002093FB0124EC30E03093FE012093FD0125
:1009900020EC30E0309300022093FF0121EC30E0A6
:1009A000309302022093010222EC30E030930402E3
:1009B0002093030226EC30E03093060220930502D8
:1009C000109208021092090210920A0210920B0271
:1009D000109295021092940280939602909397023F
:1009E000A0939802B093990280E291E090939302D1
:1009F000809392021092A9021092A8021092AB0268
:100A00001092AA021092AD021092AC021092AF02A4
:100A10001092AE026091B0026E7F6D7F6093B00263
:100A20006695617081E0682788E00E94C30161E0FB
:100A300088E00E94F101E6EBF0E0E491E093A2028D
:100A4000E2EAF0E0E491F0E0EE0FFF1FE057FF4F25
:100A5000859194919093A4028093A30260E087E033
:100A60000E94F1018091B00281FD04C061E087E045
:100A70000E94C30187E080939E02E5EBF0E0E491E1
:100A8000E0939F02E1EAF0E0E491F0E0EE0FFF1F57
:100A9000EA57FF4F859194919093A1028093A00211
:100AA00010928D0210928C0210928F0210928E0280
:100AB000109291021092900250E040E060E371E0E9
:100AC0008CE892E00C944D03CF93DF9300D000D0DC
:100AD00000D0CDB7DEB7789484B5826084BD84B58C
:100AE000816084BD85B5826085BD85B5816085BD29
:100AF00080916E00816080936E00109281008091E1
:100B00008100826080938100809181008160809368
:100B10008100809180008160809380008091B1008D
:100B200084608093B1008091B00081608093B000B8
:100B300080917A00846080937A0080917A0082604C
:100B400080937A0080917A00816080937A0080910E
:100B50007A00806880937A001092C10080E48093CC
:100B60007C0080917A00806480937A0080917A0082
:100B700086FDFCCF8091780060917900762F682FF8
:100B8000072E000C880B990B6115710581059105E5
:100B900011F00E944C08E091FF01F091000282E008
:100BA0008083E091FB01F091FC011082E091FD0156
:100BB000F091FE018FEC808310920702E091030216
:100BC000F091040286E08083E0910102F09102023C
:100BD000808180618083E0910102F0910202808136
:100BE00088608083E0910102F09102028081806838
:100BF0008083E0910102F091020280818F7D8083E9
:100C00001092AD021092AC021092AB021092AA02A6
:100C10001092A9021092A8028DE991E09093AF0280
:100C20008093AE0290919E02963108F047C02DEB62
:100C300030E03093A9022093A8022BE931E03093F1
:100C4000AB022093AA022CE231E03093AD02209354
:100C5000AC022091680084E0983048F031E09E308A
:100C600008F430E081E001C0880F3A95EAF7822B62
:100C7000809368002DE630E0983050F02BE630E0AD
:100C80009E3030F02CE630E0963110F030E020E07D
:100C90003093A6022093A502292F30E0983008F067
:100CA0001CC181E001C0880F9A95EAF78093A702E2
:100CB0008091AE029091AF020197F1F78091AC0262
:100CC0009091AD02892B49F1E091ED01F091EE0197
:100CD00082E0E239F80709F1309739F0A389B48945
:100CE0009C918589809589238C938091B0028E7F19
:100CF0008093B0021092EC011092EB0182E992E035
:100D00009093EE018093ED01E091A502F091A6028F
:100D100080819091A702892B808361E371E08FEE3F
:100D200091E00E94390360E084E00E94F10161E0FB
:100D300085E00E94F10161E086E00E94F10160E03F
:100D400085E00E94C30168E873E180E090E00E94C2
:100D5000470206E710E092EBE92E90E0F92E2EE92B
:100D6000C22E20E0D22E30E0A32E30E0B32EF801C8
:100D70008491F7019490F6018490882009F4BAC018
:100D800081110E949A01E82DF0E0EE0FFF1FEA5753
:100D9000FF4FA591B4918C91982209F4ABC04FE01C
:100DA00050E06AE471E08CE892E00E944D0361E05B
:100DB00085E00E94C30161E086E00E94C3011A82BF
:100DC00019821C821B821E821D8260918C0270918E
:100DD0008D026115710541F0409190025091910290
:100DE000CE0101960E944D036AE571E082E992E02E
:100DF0000E942A0368EE73E080E090E00E944702C0
:100E000065E671E082E992E00E94390368EE73E0E2
:100E100080E090E00E9447024D815E8169817A8185
:100E200082E992E00E948D006EE271E082E992E038
:100E30000E942A0368EE73E080E090E00E9447027F
:100E40006AE182E992E00E9492026EE271E082E938
:100E500092E00E942A0368EE73E080E090E00E9436
:100E600047026EE271E082E992E00E942A0364E6A2
:100E700070E080E090E00E94470289819A810097AB
:100E800011F00E94B9094091900250919102609135
:100E90008C0270918D028FEE91E00E948D006EE2C7
:100EA00071E08FEE91E00E942A0362E871E08FEE1C
:100EB00091E00E94390360EA7FE080E090E00E94C8
:100EC0004702A114B10409F452CF0E94F70088230D
:100ED00009F44DCF0E9400004ACF9E3040F42850C4
:100EE000310981E001C0880F2A95EAF7DFCE2E5044
:100EF0003109F7CF60E971E08FEE91E00E9439038C
:100F000060E085E00E94C30160E086E00E94C301CA
:100F100068EE73E080E090E0D2CF80918C029091F7
:100F20008D02009711F00E94B90980E291E0909340
:100F30009302809392028091ED019091EE0182598B
:100F4000924071F4E091A502F091A6029081809107
:100F5000A7028095892380831092EE011092ED0103
:100F600008958F929F92AF92BF92CF92DF92EF92AD
:100F7000FF92CF93DF93EC01688179818A819B8115
:100F8000611571058105910521F464E279ED8BE528
:100F900097E02DE133EF41E050E00E945508490110
:100FA0005A019B01AC01A7EAB1E40E9474086B01ED
:100FB0007C01ACEEB4EFA50194010E948208C60E3C
:100FC000D71EE81EF91EF7FE06C081E0C81AD10838
:100FD000E10880E8F80AC882D982EA82FB82C70168
:100FE000B6019F77DF91CF91FF90EF90DF90CF9088
:100FF000BF90AF909F908F9008958F929F92AF92E5
:10100000BF92CF92DF92EF92FF92609100017091B8
:101010000101809102019091030161157105810523
:10102000910521F464E279ED8BE597E02DE133EF52
:1010300041E050E00E94550849015A019B01AC0172
:10104000A7EAB1E40E9474086B017C01ACEEB4EF36
:10105000A50194010E948208C60ED71EE81EF91E43
:10106000F7FE06C081E0C81AD108E10880E8F80A56
:10107000C0920001D0920101E0920201F0920301BE
:10108000C701B6019F77FF90EF90DF90CF90BF90A0
:10109000AF909F908F90089560930001709301012D
:1010A00080930201909303010895052E97FB1EF48F
:1010B00000940E946C0857FD07D00E94BE0807FCF0
:1010C00003D04EF40C946C085095409530952195C2
:1010D0003F4F4F4F5F4F0895909580957095619564
:1010E0007F4F8F4F9F4F08950E94E008A59F900D5E
:1010F000B49F900DA49F800D911D11240895B7FFFA
:101100000C9474080E947408821B930B08952F920C
:101110003F924F925F926F927F928F929F92AF9287
:10112000BF92CF92DF92EF92FF920F931F93CF93D4
:10113000DF93CDB7DEB7CA1BDB0B0FB6F894DEBF6B
:101140000FBECDBF09942A88398848885F846E8491
:101150007D848C849B84AA84B984C884DF80EE80DB
:10116000FD800C811B81AA81B981CE0FD11D0FB6E4
:10117000F894DEBF0FBECDBFED010895A1E21A2E97
:10118000AA1BBB1BFD010DC0AA1FBB1FEE1FFF1F2B
:10119000A217B307E407F50720F0A21BB30BE40B7B
:1011A000F50B661F771F881F991F1A9469F76095C2
:1011B0007095809590959B01AC01BD01CF0108957C
:1011C000A29FB001B39FC001A39F700D811D112488
:1011D000911DB29F700D811D1124911D089597FBE3
:1011E000072E16F4009407D077FD09D00E9403095A
:1011F00007FC05D03EF4909581959F4F089570951A
:1012000061957F4F0895AA1BBB1B51E107C0AA1F20
:10121000BB1FA617B70710F0A61BB70B881F991F97
:101220005A95A9F780959095BC01CD010895EE0FD0
:10123000FF1F0590F491E02D09940F931F93CF9316
:10124000DF938230910510F482E090E0E091B302E8
:10125000F091B40230E020E0B0E0A0E0309799F4E3
:101260002115310509F44AC0281B390B24303105FA
:10127000D8F58A819B816115710589F1FB01938302
:101280008283FE0111C04081518102811381481780
:101290005907E0F04817590799F4109761F0129632
:1012A0000C93129713961C933296CF01DF91CF9136
:1012B0001F910F9108950093B3021093B402F4CFDD
:1012C0002115310551F04217530738F0A901DB0110
:1012D0009A01BD01DF01F801C1CFEF01F9CF909371
:1012E000B4028093B302CDCFFE01E20FF31F8193CE
:1012F00091932250310939832883D7CF2091B102AD
:101300003091B202232B41F4209106013091070164
:101310003093B2022093B102209104013091050173
:101320002115310541F42DB73EB740910801509188
:101330000901241B350BE091B102F091B202E217D2
:10134000F307A0F42E1B3F0B2817390778F0AC01E8
:101350004E5F5F4F2417350748F04E0F5F1F5093C5
:10136000B2024093B102819391939FCFF0E0E0E00D
:101370009CCFCF93DF930097E9F0FC013297138263
:101380001282A091B302B091B402ED0130E020E0EE
:101390001097A1F420813181820F931F2091B10217
:1013A0003091B2022817390709F061C0F093B202F8
:1013B000E093B102DF91CF910895EA01CE17DF07E4
:1013C000E8F54A815B819E0141155105B1F7E901BC
:1013D000FB83EA8349915991C40FD51FEC17FD0790
:1013E00061F4808191810296840F951FE9019983B0
:1013F0008883828193819B838A83F0E0E0E0129668
:101400008D919C9113970097B9F52D913C9111976F
:10141000CD010296820F931F2091B1023091B2024A
:101420002817390739F6309751F51092B402109207
:10143000B302B093B202A093B102BCCFD383C283F4
:1014400040815181840F951FC817D90761F44E5F01
:101450005F4F88819981480F591F518340838A814A
:101460009B81938382832115310509F0B0CFF093DE
:10147000B402E093B3029ECFFD01DC01C0CF138222
:101480001282D7CFB0E0A0E0E8E4FAE00C9489083B
:101490008C01009751F4CB010E941D098C01C801F9
:1014A000CDB7DEB7E0E10C94A508FC01E60FF71F0D
:1014B0009C0122503109E217F30708F49DC0D901BD
:1014C000CD91DC911197C617D70798F0C530D1059B
:1014D00030F3CE0104978617970708F3C61BD70B86
:1014E0002297C193D1936D937C93CF010E94B90948
:1014F000D6CF5B01AC1ABD0A4C018C0E9D1EA0918B
:10150000B302B091B402512C412CF12CE12C109774
:1015100031F58091B1029091B2028815990509F0D8
:101520005CC04616570608F058C08091040190919F
:101530000501009741F48DB79EB740910801509185
:101540000901841B950BE817F90708F055C0F093C3
:10155000B202E093B102F90171836083A0CF8D9153
:101560009C91119712966C90129713967C901397FA
:10157000A815B90559F56C0142E0C40ED11CCA1476
:10158000DB0420F1AC014A195B09DA0112961597C8
:1015900080F06282738251834083D9016D937C9382
:1015A000E114F10471F0D7011396FC93EE931297B6
:1015B00076CF22968C0F9D1FF90191838083F301D2
:1015C000EFCFF093B402E093B30269CF4816590607
:1015D00008F42C017D01D3019ACFCB010E941D0993
:1015E0007C01009749F0AE01B8010E94FF0AC801D2
:1015F0000E94B909870153CF10E000E050CFFB01F2
:10160000DC0102C001900D9241505040D8F708957E
:10161000FB01DC0101900D920020E1F7089510E03C
:10162000C2E6D0E004C0FE010E9417092196C3362D
:08163000D107C9F7F894FFCFC0
:10163800010000000000B5028000000000002D013C
:101648008D00BA007A01EB00C900DD00000000003F
:1016580092028D0027039102EE02060379020D0A19
:1016680000206C6F6767696E672074696D65206319
:101678006F6D706C6574656421000A466972652037
:101688004465746563746564210041542B434D4778
:10169800463D310D004154202B20434D4753203DFA
:1016A80020222B363238353135353430323238371E
:1016B80022006D6573736167652073656E742E0013
:1016C8004E6F20466972652044657465637465646D
:0216D800000010
:00000001FF
